{"abi":[{"type":"constructor","inputs":[],"stateMutability":"nonpayable"},{"type":"function","name":"actors","inputs":[{"name":"","type":"address","internalType":"address"}],"outputs":[{"name":"actorAddress","type":"address","internalType":"address"},{"name":"name","type":"string","internalType":"string"},{"name":"role","type":"uint8","internalType":"enum SupplyChain.ActorRole"},{"name":"location","type":"string","internalType":"string"},{"name":"isActive","type":"bool","internalType":"bool"}],"stateMutability":"view"},{"type":"function","name":"admin","inputs":[],"outputs":[{"name":"","type":"address","internalType":"address"}],"stateMutability":"view"},{"type":"function","name":"cancelShipment","inputs":[{"name":"_shipmentId","type":"uint256","internalType":"uint256"}],"outputs":[],"stateMutability":"nonpayable"},{"type":"function","name":"checkpoints","inputs":[{"name":"","type":"uint256","internalType":"uint256"}],"outputs":[{"name":"id","type":"uint256","internalType":"uint256"},{"name":"shipmentId","type":"uint256","internalType":"uint256"},{"name":"actor","type":"address","internalType":"address"},{"name":"location","type":"string","internalType":"string"},{"name":"checkpointType","type":"string","internalType":"string"},{"name":"timestamp","type":"uint256","internalType":"uint256"},{"name":"notes","type":"string","internalType":"string"},{"name":"temperature","type":"int256","internalType":"int256"}],"stateMutability":"view"},{"type":"function","name":"confirmDelivery","inputs":[{"name":"_shipmentId","type":"uint256","internalType":"uint256"}],"outputs":[],"stateMutability":"nonpayable"},{"type":"function","name":"createShipment","inputs":[{"name":"_recipient","type":"address","internalType":"address"},{"name":"_product","type":"string","internalType":"string"},{"name":"_origin","type":"string","internalType":"string"},{"name":"_destination","type":"string","internalType":"string"},{"name":"_requiresColdChain","type":"bool","internalType":"bool"}],"outputs":[{"name":"","type":"uint256","internalType":"uint256"}],"stateMutability":"nonpayable"},{"type":"function","name":"deactivateActor","inputs":[{"name":"_actorAddress","type":"address","internalType":"address"}],"outputs":[],"stateMutability":"nonpayable"},{"type":"function","name":"getActor","inputs":[{"name":"_actorAddress","type":"address","internalType":"address"}],"outputs":[{"name":"","type":"tuple","internalType":"struct SupplyChain.Actor","components":[{"name":"actorAddress","type":"address","internalType":"address"},{"name":"name","type":"string","internalType":"string"},{"name":"role","type":"uint8","internalType":"enum SupplyChain.ActorRole"},{"name":"location","type":"string","internalType":"string"},{"name":"isActive","type":"bool","internalType":"bool"}]}],"stateMutability":"view"},{"type":"function","name":"getActorShipments","inputs":[{"name":"_actor","type":"address","internalType":"address"}],"outputs":[{"name":"","type":"uint256[]","internalType":"uint256[]"}],"stateMutability":"view"},{"type":"function","name":"getCheckpoint","inputs":[{"name":"_checkpointId","type":"uint256","internalType":"uint256"}],"outputs":[{"name":"","type":"tuple","internalType":"struct SupplyChain.Checkpoint","components":[{"name":"id","type":"uint256","internalType":"uint256"},{"name":"shipmentId","type":"uint256","internalType":"uint256"},{"name":"actor","type":"address","internalType":"address"},{"name":"location","type":"string","internalType":"string"},{"name":"checkpointType","type":"string","internalType":"string"},{"name":"timestamp","type":"uint256","internalType":"uint256"},{"name":"notes","type":"string","internalType":"string"},{"name":"temperature","type":"int256","internalType":"int256"}]}],"stateMutability":"view"},{"type":"function","name":"getIncident","inputs":[{"name":"_incidentId","type":"uint256","internalType":"uint256"}],"outputs":[{"name":"","type":"tuple","internalType":"struct SupplyChain.Incident","components":[{"name":"id","type":"uint256","internalType":"uint256"},{"name":"shipmentId","type":"uint256","internalType":"uint256"},{"name":"incidentType","type":"uint8","internalType":"enum SupplyChain.IncidentType"},{"name":"reporter","type":"address","internalType":"address"},{"name":"description","type":"string","internalType":"string"},{"name":"timestamp","type":"uint256","internalType":"uint256"},{"name":"resolved","type":"bool","internalType":"bool"}]}],"stateMutability":"view"},{"type":"function","name":"getShipment","inputs":[{"name":"_shipmentId","type":"uint256","internalType":"uint256"}],"outputs":[{"name":"","type":"tuple","internalType":"struct SupplyChain.Shipment","components":[{"name":"id","type":"uint256","internalType":"uint256"},{"name":"sender","type":"address","internalType":"address"},{"name":"recipient","type":"address","internalType":"address"},{"name":"product","type":"string","internalType":"string"},{"name":"origin","type":"string","internalType":"string"},{"name":"destination","type":"string","internalType":"string"},{"name":"dateCreated","type":"uint256","internalType":"uint256"},{"name":"dateDelivered","type":"uint256","internalType":"uint256"},{"name":"status","type":"uint8","internalType":"enum SupplyChain.ShipmentStatus"},{"name":"checkpointIds","type":"uint256[]","internalType":"uint256[]"},{"name":"incidentIds","type":"uint256[]","internalType":"uint256[]"},{"name":"requiresColdChain","type":"bool","internalType":"bool"}]}],"stateMutability":"view"},{"type":"function","name":"getShipmentCheckpoints","inputs":[{"name":"_shipmentId","type":"uint256","internalType":"uint256"}],"outputs":[{"name":"","type":"tuple[]","internalType":"struct SupplyChain.Checkpoint[]","components":[{"name":"id","type":"uint256","internalType":"uint256"},{"name":"shipmentId","type":"uint256","internalType":"uint256"},{"name":"actor","type":"address","internalType":"address"},{"name":"location","type":"string","internalType":"string"},{"name":"checkpointType","type":"string","internalType":"string"},{"name":"timestamp","type":"uint256","internalType":"uint256"},{"name":"notes","type":"string","internalType":"string"},{"name":"temperature","type":"int256","internalType":"int256"}]}],"stateMutability":"view"},{"type":"function","name":"getShipmentIncidents","inputs":[{"name":"_shipmentId","type":"uint256","internalType":"uint256"}],"outputs":[{"name":"","type":"tuple[]","internalType":"struct SupplyChain.Incident[]","components":[{"name":"id","type":"uint256","internalType":"uint256"},{"name":"shipmentId","type":"uint256","internalType":"uint256"},{"name":"incidentType","type":"uint8","internalType":"enum SupplyChain.IncidentType"},{"name":"reporter","type":"address","internalType":"address"},{"name":"description","type":"string","internalType":"string"},{"name":"timestamp","type":"uint256","internalType":"uint256"},{"name":"resolved","type":"bool","internalType":"bool"}]}],"stateMutability":"view"},{"type":"function","name":"incidents","inputs":[{"name":"","type":"uint256","internalType":"uint256"}],"outputs":[{"name":"id","type":"uint256","internalType":"uint256"},{"name":"shipmentId","type":"uint256","internalType":"uint256"},{"name":"incidentType","type":"uint8","internalType":"enum SupplyChain.IncidentType"},{"name":"reporter","type":"address","internalType":"address"},{"name":"description","type":"string","internalType":"string"},{"name":"timestamp","type":"uint256","internalType":"uint256"},{"name":"resolved","type":"bool","internalType":"bool"}],"stateMutability":"view"},{"type":"function","name":"nextCheckpointId","inputs":[],"outputs":[{"name":"","type":"uint256","internalType":"uint256"}],"stateMutability":"view"},{"type":"function","name":"nextIncidentId","inputs":[],"outputs":[{"name":"","type":"uint256","internalType":"uint256"}],"stateMutability":"view"},{"type":"function","name":"nextShipmentId","inputs":[],"outputs":[{"name":"","type":"uint256","internalType":"uint256"}],"stateMutability":"view"},{"type":"function","name":"recordCheckpoint","inputs":[{"name":"_shipmentId","type":"uint256","internalType":"uint256"},{"name":"_location","type":"string","internalType":"string"},{"name":"_checkpointType","type":"string","internalType":"string"},{"name":"_notes","type":"string","internalType":"string"},{"name":"_temperature","type":"int256","internalType":"int256"}],"outputs":[{"name":"","type":"uint256","internalType":"uint256"}],"stateMutability":"nonpayable"},{"type":"function","name":"registerActor","inputs":[{"name":"_actorAddress","type":"address","internalType":"address"},{"name":"_name","type":"string","internalType":"string"},{"name":"_role","type":"uint8","internalType":"enum SupplyChain.ActorRole"},{"name":"_location","type":"string","internalType":"string"}],"outputs":[],"stateMutability":"nonpayable"},{"type":"function","name":"reportIncident","inputs":[{"name":"_shipmentId","type":"uint256","internalType":"uint256"},{"name":"_incidentType","type":"uint8","internalType":"enum SupplyChain.IncidentType"},{"name":"_description","type":"string","internalType":"string"}],"outputs":[{"name":"","type":"uint256","internalType":"uint256"}],"stateMutability":"nonpayable"},{"type":"function","name":"resolveIncident","inputs":[{"name":"_incidentId","type":"uint256","internalType":"uint256"}],"outputs":[],"stateMutability":"nonpayable"},{"type":"function","name":"shipments","inputs":[{"name":"","type":"uint256","internalType":"uint256"}],"outputs":[{"name":"id","type":"uint256","internalType":"uint256"},{"name":"sender","type":"address","internalType":"address"},{"name":"recipient","type":"address","internalType":"address"},{"name":"product","type":"string","internalType":"string"},{"name":"origin","type":"string","internalType":"string"},{"name":"destination","type":"string","internalType":"string"},{"name":"dateCreated","type":"uint256","internalType":"uint256"},{"name":"dateDelivered","type":"uint256","internalType":"uint256"},{"name":"status","type":"uint8","internalType":"enum SupplyChain.ShipmentStatus"},{"name":"requiresColdChain","type":"bool","internalType":"bool"}],"stateMutability":"view"},{"type":"function","name":"updateShipmentStatus","inputs":[{"name":"_shipmentId","type":"uint256","internalType":"uint256"},{"name":"_newStatus","type":"uint8","internalType":"enum SupplyChain.ShipmentStatus"}],"outputs":[],"stateMutability":"nonpayable"},{"type":"function","name":"verifyTemperatureCompliance","inputs":[{"name":"_shipmentId","type":"uint256","internalType":"uint256"}],"outputs":[{"name":"","type":"bool","internalType":"bool"}],"stateMutability":"view"},{"type":"event","name":"ActorRegistered","inputs":[{"name":"actorAddress","type":"address","indexed":true,"internalType":"address"},{"name":"name","type":"string","indexed":false,"internalType":"string"},{"name":"role","type":"uint8","indexed":false,"internalType":"enum SupplyChain.ActorRole"}],"anonymous":false},{"type":"event","name":"CheckpointRecorded","inputs":[{"name":"checkpointId","type":"uint256","indexed":true,"internalType":"uint256"},{"name":"shipmentId","type":"uint256","indexed":true,"internalType":"uint256"},{"name":"location","type":"string","indexed":false,"internalType":"string"},{"name":"actor","type":"address","indexed":false,"internalType":"address"}],"anonymous":false},{"type":"event","name":"DeliveryConfirmed","inputs":[{"name":"shipmentId","type":"uint256","indexed":true,"internalType":"uint256"},{"name":"recipient","type":"address","indexed":true,"internalType":"address"},{"name":"timestamp","type":"uint256","indexed":false,"internalType":"uint256"}],"anonymous":false},{"type":"event","name":"IncidentReported","inputs":[{"name":"incidentId","type":"uint256","indexed":true,"internalType":"uint256"},{"name":"shipmentId","type":"uint256","indexed":true,"internalType":"uint256"},{"name":"incidentType","type":"uint8","indexed":false,"internalType":"enum SupplyChain.IncidentType"}],"anonymous":false},{"type":"event","name":"IncidentResolved","inputs":[{"name":"incidentId","type":"uint256","indexed":true,"internalType":"uint256"}],"anonymous":false},{"type":"event","name":"ShipmentCreated","inputs":[{"name":"shipmentId","type":"uint256","indexed":true,"internalType":"uint256"},{"name":"sender","type":"address","indexed":true,"internalType":"address"},{"name":"recipient","type":"address","indexed":true,"internalType":"address"},{"name":"product","type":"string","indexed":false,"internalType":"string"}],"anonymous":false},{"type":"event","name":"ShipmentStatusChanged","inputs":[{"name":"shipmentId","type":"uint256","indexed":true,"internalType":"uint256"},{"name":"newStatus","type":"uint8","indexed":false,"internalType":"enum SupplyChain.ShipmentStatus"}],"anonymous":false}],"bytecode":{"object":"0x60806040526001805560016002556001600355348015601c575f5ffd5b50335f5f6101000a81548173ffffffffffffffffffffffffffffffffffffffff021916908373ffffffffffffffffffffffffffffffffffffffff160217905550615dc3806100695f395ff3fe608060405234801561000f575f5ffd5b5060043610610171575f3560e01c8063733e28aa116100dc578063b8a2425211610095578063eaa66a3c1161006f578063eaa66a3c146104f5578063f851a44014610529578063fc43669514610547578063fd84cb971461056357610171565b8063b8a2425214610470578063b9a3a68c146104a7578063e570c367146104c557610171565b8063733e28aa146103725780637defa920146103a25780637faa7bc7146103be5780639578615e146103da578063a6c6a8f31461040a578063af56a4281461044057610171565b80634138d1671161012e5780634138d1671461027a57806344453a94146102aa578063475b6f98146102c65780634ffe6ae2146102f65780635f19f4f51461031257806372f2f93a1461034257610171565b8063092b3740146101755780630fd19668146101a557806320fc4881146101c3578063229ec452146101f35780632ac08a931461021157806333401ee11461024a575b5f5ffd5b61018f600480360381019061018a9190613f2c565b61057f565b60405161019c9190614267565b60405180910390f35b6101ad610973565b6040516101ba9190614296565b60405180910390f35b6101dd60048036038101906101d89190613f2c565b610979565b6040516101ea9190614382565b60405180910390f35b6101fb610c22565b6040516102089190614296565b60405180910390f35b61022b60048036038101906102269190613f2c565b610c28565b6040516102419a99989796959493929190614417565b60405180910390f35b610264600480360381019061025f919061461c565b610e60565b6040516102719190614296565b60405180910390f35b610294600480360381019061028f9190614711565b6111c1565b6040516102a191906147fc565b60405180910390f35b6102c460048036038101906102bf919061483f565b6113e0565b005b6102e060048036038101906102db9190614905565b6116e0565b6040516102ed9190614296565b60405180910390f35b610310600480360381019061030b9190613f2c565b611bc6565b005b61032c60048036038101906103279190613f2c565b611d60565b6040516103399190614b46565b60405180910390f35b61035c60048036038101906103579190614711565b612116565b6040516103699190614bd2565b60405180910390f35b61038c60048036038101906103879190613f2c565b612391565b6040516103999190614d8c565b60405180910390f35b6103bc60048036038101906103b79190614dcf565b612671565b005b6103d860048036038101906103d39190613f2c565b612a3f565b005b6103f460048036038101906103ef9190613f2c565b612dbc565b6040516104019190614ea6565b60405180910390f35b610424600480360381019061041f9190613f2c565b612f8f565b6040516104379796959493929190614ed5565b60405180910390f35b61045a60048036038101906104559190613f2c565b61308b565b6040516104679190614f49565b60405180910390f35b61048a60048036038101906104859190613f2c565b6131b7565b60405161049e989796959493929190614f71565b60405180910390f35b6104af6133ac565b6040516104bc9190614296565b60405180910390f35b6104df60048036038101906104da9190615025565b6133b2565b6040516104ec9190614296565b60405180910390f35b61050f600480360381019061050a9190614711565b6136e3565b6040516105209594939291906150a0565b60405180910390f35b610531613858565b60405161053e91906150ff565b60405180910390f35b610561600480360381019061055c9190614711565b61387c565b005b61057d60048036038101906105789190613f2c565b613a30565b005b610587613cdb565b815f81118015610598575060015481105b6105d7576040517f08c379a00000000000000000000000000000000000000000000000000000000081526004016105ce90615162565b60405180910390fd5b60045f8481526020019081526020015f20604051806101800160405290815f8201548152602001600182015f9054906101000a900473ffffffffffffffffffffffffffffffffffffffff1673ffffffffffffffffffffffffffffffffffffffff1673ffffffffffffffffffffffffffffffffffffffff168152602001600282015f9054906101000a900473ffffffffffffffffffffffffffffffffffffffff1673ffffffffffffffffffffffffffffffffffffffff1673ffffffffffffffffffffffffffffffffffffffff1681526020016003820180546106b7906151ad565b80601f01602080910402602001604051908101604052809291908181526020018280546106e3906151ad565b801561072e5780601f106107055761010080835404028352916020019161072e565b820191905f5260205f20905b81548152906001019060200180831161071157829003601f168201915b50505050508152602001600482018054610747906151ad565b80601f0160208091040260200160405190810160405280929190818152602001828054610773906151ad565b80156107be5780601f10610795576101008083540402835291602001916107be565b820191905f5260205f20905b8154815290600101906020018083116107a157829003601f168201915b505050505081526020016005820180546107d7906151ad565b80601f0160208091040260200160405190810160405280929190818152602001828054610803906151ad565b801561084e5780601f106108255761010080835404028352916020019161084e565b820191905f5260205f20905b81548152906001019060200180831161083157829003601f168201915b505050505081526020016006820154815260200160078201548152602001600882015f9054906101000a900460ff16600681111561088f5761088e614015565b5b60068111156108a1576108a0614015565b5b8152602001600982018054806020026020016040519081016040528092919081815260200182805480156108f257602002820191905f5260205f20905b8154815260200190600101908083116108de575b50505050508152602001600a820180548060200260200160405190810160405280929190818152602001828054801561094857602002820191905f5260205f20905b815481526020019060010190808311610934575b50505050508152602001600b82015f9054906101000a900460ff161515151581525050915050919050565b60035481565b610981613d75565b815f81118015610992575060025481105b6109d1576040517f08c379a00000000000000000000000000000000000000000000000000000000081526004016109c890615227565b60405180910390fd5b60055f8481526020019081526020015f20604051806101000160405290815f820154815260200160018201548152602001600282015f9054906101000a900473ffffffffffffffffffffffffffffffffffffffff1673ffffffffffffffffffffffffffffffffffffffff1673ffffffffffffffffffffffffffffffffffffffff168152602001600382018054610a66906151ad565b80601f0160208091040260200160405190810160405280929190818152602001828054610a92906151ad565b8015610add5780601f10610ab457610100808354040283529160200191610add565b820191905f5260205f20905b815481529060010190602001808311610ac057829003601f168201915b50505050508152602001600482018054610af6906151ad565b80601f0160208091040260200160405190810160405280929190818152602001828054610b22906151ad565b8015610b6d5780601f10610b4457610100808354040283529160200191610b6d565b820191905f5260205f20905b815481529060010190602001808311610b5057829003601f168201915b5050505050815260200160058201548152602001600682018054610b90906151ad565b80601f0160208091040260200160405190810160405280929190818152602001828054610bbc906151ad565b8015610c075780601f10610bde57610100808354040283529160200191610c07565b820191905f5260205f20905b815481529060010190602001808311610bea57829003601f168201915b50505050508152602001600782015481525050915050919050565b60025481565b6004602052805f5260405f205f91509050805f015490806001015f9054906101000a900473ffffffffffffffffffffffffffffffffffffffff1690806002015f9054906101000a900473ffffffffffffffffffffffffffffffffffffffff1690806003018054610c97906151ad565b80601f0160208091040260200160405190810160405280929190818152602001828054610cc3906151ad565b8015610d0e5780601f10610ce557610100808354040283529160200191610d0e565b820191905f5260205f20905b815481529060010190602001808311610cf157829003601f168201915b505050505090806004018054610d23906151ad565b80601f0160208091040260200160405190810160405280929190818152602001828054610d4f906151ad565b8015610d9a5780601f10610d7157610100808354040283529160200191610d9a565b820191905f5260205f20905b815481529060010190602001808311610d7d57829003601f168201915b505050505090806005018054610daf906151ad565b80601f0160208091040260200160405190810160405280929190818152602001828054610ddb906151ad565b8015610e265780601f10610dfd57610100808354040283529160200191610e26565b820191905f5260205f20905b815481529060010190602001808311610e0957829003601f168201915b505050505090806006015490806007015490806008015f9054906101000a900460ff169080600b015f9054906101000a900460ff1690508a565b5f60075f3373ffffffffffffffffffffffffffffffffffffffff1673ffffffffffffffffffffffffffffffffffffffff1681526020019081526020015f206004015f9054906101000a900460ff16610eed576040517f08c379a0000000000000000000000000000000000000000000000000000000008152600401610ee49061528f565b60405180910390fd5b855f81118015610efe575060015481105b610f3d576040517f08c379a0000000000000000000000000000000000000000000000000000000008152600401610f3490615162565b60405180910390fd5b600680811115610f5057610f4f614015565b5b60045f8981526020019081526020015f206008015f9054906101000a900460ff166006811115610f8357610f82614015565b5b14158015610fd6575060046006811115610fa057610f9f614015565b5b60045f8981526020019081526020015f206008015f9054906101000a900460ff166006811115610fd357610fd2614015565b5b14155b611015576040517f08c379a000000000000000000000000000000000000000000000000000000000815260040161100c9061531d565b60405180910390fd5b5f60025f81548092919061102890615368565b9190505590506040518061010001604052808281526020018981526020013373ffffffffffffffffffffffffffffffffffffffff1681526020018881526020018781526020014281526020018681526020018581525060055f8381526020019081526020015f205f820151815f0155602082015181600101556040820151816002015f6101000a81548173ffffffffffffffffffffffffffffffffffffffff021916908373ffffffffffffffffffffffffffffffffffffffff16021790555060608201518160030190816110fc919061554f565b506080820151816004019081611112919061554f565b5060a0820151816005015560c0820151816006019081611132919061554f565b5060e0820151816007015590505060045f8981526020019081526020015f2060090181908060018154018082558091505060019003905f5260205f20015f909190919091505587817f866de744a1d30941b1bccb4355cfb9dacfa65296f3ab651a0d4dce76bf988a7189336040516111ab92919061561e565b60405180910390a3809250505095945050505050565b6111c9613dcb565b60075f8373ffffffffffffffffffffffffffffffffffffffff1673ffffffffffffffffffffffffffffffffffffffff1681526020019081526020015f206040518060a00160405290815f82015f9054906101000a900473ffffffffffffffffffffffffffffffffffffffff1673ffffffffffffffffffffffffffffffffffffffff1673ffffffffffffffffffffffffffffffffffffffff168152602001600182018054611275906151ad565b80601f01602080910402602001604051908101604052809291908181526020018280546112a1906151ad565b80156112ec5780601f106112c3576101008083540402835291602001916112ec565b820191905f5260205f20905b8154815290600101906020018083116112cf57829003601f168201915b50505050508152602001600282015f9054906101000a900460ff16600581111561131957611318614015565b5b600581111561132b5761132a614015565b5b815260200160038201805461133f906151ad565b80601f016020809104026020016040519081016040528092919081815260200182805461136b906151ad565b80156113b65780601f1061138d576101008083540402835291602001916113b6565b820191905f5260205f20905b81548152906001019060200180831161139957829003601f168201915b50505050508152602001600482015f9054906101000a900460ff1615151515815250509050919050565b5f5f9054906101000a900473ffffffffffffffffffffffffffffffffffffffff1673ffffffffffffffffffffffffffffffffffffffff163373ffffffffffffffffffffffffffffffffffffffff161461146e576040517f08c379a0000000000000000000000000000000000000000000000000000000008152600401611465906156bc565b60405180910390fd5b5f73ffffffffffffffffffffffffffffffffffffffff1660075f3373ffffffffffffffffffffffffffffffffffffffff1673ffffffffffffffffffffffffffffffffffffffff1681526020019081526020015f205f015f9054906101000a900473ffffffffffffffffffffffffffffffffffffffff1673ffffffffffffffffffffffffffffffffffffffff161461153a576040517f08c379a000000000000000000000000000000000000000000000000000000000815260040161153190615724565b60405180910390fd5b6040518060a001604052808573ffffffffffffffffffffffffffffffffffffffff16815260200184815260200183600581111561157a57611579614015565b5b81526020018281526020016001151581525060075f8673ffffffffffffffffffffffffffffffffffffffff1673ffffffffffffffffffffffffffffffffffffffff1681526020019081526020015f205f820151815f015f6101000a81548173ffffffffffffffffffffffffffffffffffffffff021916908373ffffffffffffffffffffffffffffffffffffffff1602179055506020820151816001019081611622919061554f565b506040820151816002015f6101000a81548160ff0219169083600581111561164d5761164c614015565b5b02179055506060820151816003019081611667919061554f565b506080820151816004015f6101000a81548160ff0219169083151502179055509050503373ffffffffffffffffffffffffffffffffffffffff167fc9a31de765abe70445345802bee3c96554ca063ab257e3888d498accb859fabc84846040516116d2929190615742565b60405180910390a250505050565b5f60075f3373ffffffffffffffffffffffffffffffffffffffff1673ffffffffffffffffffffffffffffffffffffffff1681526020019081526020015f206004015f9054906101000a900460ff1661176d576040517f08c379a00000000000000000000000000000000000000000000000000000000081526004016117649061528f565b60405180910390fd5b5f73ffffffffffffffffffffffffffffffffffffffff168673ffffffffffffffffffffffffffffffffffffffff16036117db576040517f08c379a00000000000000000000000000000000000000000000000000000000081526004016117d2906157ba565b60405180910390fd5b600160058111156117ef576117ee614015565b5b60075f3373ffffffffffffffffffffffffffffffffffffffff1673ffffffffffffffffffffffffffffffffffffffff1681526020019081526020015f206002015f9054906101000a900460ff16600581111561184e5761184d614015565b5b1461188e576040517f08c379a000000000000000000000000000000000000000000000000000000000815260040161188590615822565b60405180910390fd5b5f60015f8154809291906118a190615368565b9190505590506040518061018001604052808281526020013373ffffffffffffffffffffffffffffffffffffffff1681526020018873ffffffffffffffffffffffffffffffffffffffff1681526020018781526020018681526020018581526020014281526020015f81526020015f600681111561192257611921614015565b5b81526020015f67ffffffffffffffff811115611941576119406144ce565b5b60405190808252806020026020018201604052801561196f5781602001602082028036833780820191505090505b5081526020015f67ffffffffffffffff81111561198f5761198e6144ce565b5b6040519080825280602002602001820160405280156119bd5781602001602082028036833780820191505090505b50815260200184151581525060045f8381526020019081526020015f205f820151815f01556020820151816001015f6101000a81548173ffffffffffffffffffffffffffffffffffffffff021916908373ffffffffffffffffffffffffffffffffffffffff1602179055506040820151816002015f6101000a81548173ffffffffffffffffffffffffffffffffffffffff021916908373ffffffffffffffffffffffffffffffffffffffff1602179055506060820151816003019081611a83919061554f565b506080820151816004019081611a99919061554f565b5060a0820151816005019081611aaf919061554f565b5060c0820151816006015560e08201518160070155610100820151816008015f6101000a81548160ff02191690836006811115611aef57611aee614015565b5b0217905550610120820151816009019080519060200190611b11929190613e21565b5061014082015181600a019080519060200190611b2f929190613e21565b5061016082015181600b015f6101000a81548160ff0219169083151502179055509050508673ffffffffffffffffffffffffffffffffffffffff163373ffffffffffffffffffffffffffffffffffffffff16827f8fb6b855d6cbdf201f2fcaadbf8c38d36168ff7d2ca865cb2599abcd5a060e8f89604051611bb19190615840565b60405180910390a48091505095945050505050565b60075f3373ffffffffffffffffffffffffffffffffffffffff1673ffffffffffffffffffffffffffffffffffffffff1681526020019081526020015f206004015f9054906101000a900460ff16611c52576040517f08c379a0000000000000000000000000000000000000000000000000000000008152600401611c499061528f565b60405180910390fd5b805f81118015611c63575060035481105b611ca2576040517f08c379a0000000000000000000000000000000000000000000000000000000008152600401611c99906158aa565b60405180910390fd5b60065f8381526020019081526020015f206005015f9054906101000a900460ff1615611d03576040517f08c379a0000000000000000000000000000000000000000000000000000000008152600401611cfa90615912565b60405180910390fd5b600160065f8481526020019081526020015f206005015f6101000a81548160ff021916908315150217905550817ff83ae0ade2d9004bc0030405bdd3336f9d9b97530bcf44cce99ce02c95641b7760405160405180910390a25050565b6060815f81118015611d73575060015481105b611db2576040517f08c379a0000000000000000000000000000000000000000000000000000000008152600401611da990615162565b60405180910390fd5b5f60045f8581526020019081526020015f20600901805480602002602001604051908101604052809291908181526020018280548015611e0f57602002820191905f5260205f20905b815481526020019060010190808311611dfb575b505050505090505f815167ffffffffffffffff811115611e3257611e316144ce565b5b604051908082528060200260200182016040528015611e6b57816020015b611e58613d75565b815260200190600190039081611e505790505b5090505f5f90505b825181101561210a5760055f848381518110611e9257611e91615930565b5b602002602001015181526020019081526020015f20604051806101000160405290815f820154815260200160018201548152602001600282015f9054906101000a900473ffffffffffffffffffffffffffffffffffffffff1673ffffffffffffffffffffffffffffffffffffffff1673ffffffffffffffffffffffffffffffffffffffff168152602001600382018054611f2b906151ad565b80601f0160208091040260200160405190810160405280929190818152602001828054611f57906151ad565b8015611fa25780601f10611f7957610100808354040283529160200191611fa2565b820191905f5260205f20905b815481529060010190602001808311611f8557829003601f168201915b50505050508152602001600482018054611fbb906151ad565b80601f0160208091040260200160405190810160405280929190818152602001828054611fe7906151ad565b80156120325780601f1061200957610100808354040283529160200191612032565b820191905f5260205f20905b81548152906001019060200180831161201557829003601f168201915b5050505050815260200160058201548152602001600682018054612055906151ad565b80601f0160208091040260200160405190810160405280929190818152602001828054612081906151ad565b80156120cc5780601f106120a3576101008083540402835291602001916120cc565b820191905f5260205f20905b8154815290600101906020018083116120af57829003601f168201915b505050505081526020016007820154815250508282815181106120f2576120f1615930565b5b60200260200101819052508080600101915050611e73565b50809350505050919050565b60605f5f90505f600190505b600154811015612218578373ffffffffffffffffffffffffffffffffffffffff1660045f8381526020019081526020015f206001015f9054906101000a900473ffffffffffffffffffffffffffffffffffffffff1673ffffffffffffffffffffffffffffffffffffffff1614806121f757508373ffffffffffffffffffffffffffffffffffffffff1660045f8381526020019081526020015f206002015f9054906101000a900473ffffffffffffffffffffffffffffffffffffffff1673ffffffffffffffffffffffffffffffffffffffff16145b1561220b57818061220790615368565b9250505b8080600101915050612122565b505f8167ffffffffffffffff811115612234576122336144ce565b5b6040519080825280602002602001820160405280156122625781602001602082028036833780820191505090505b5090505f5f90505f600190505b600154811015612385578573ffffffffffffffffffffffffffffffffffffffff1660045f8381526020019081526020015f206001015f9054906101000a900473ffffffffffffffffffffffffffffffffffffffff1673ffffffffffffffffffffffffffffffffffffffff16148061234457508573ffffffffffffffffffffffffffffffffffffffff1660045f8381526020019081526020015f206002015f9054906101000a900473ffffffffffffffffffffffffffffffffffffffff1673ffffffffffffffffffffffffffffffffffffffff16145b15612378578083838151811061235d5761235c615930565b5b602002602001018181525050818061237490615368565b9250505b808060010191505061226f565b50819350505050919050565b6060815f811180156123a4575060015481105b6123e3576040517f08c379a00000000000000000000000000000000000000000000000000000000081526004016123da90615162565b60405180910390fd5b5f60045f8581526020019081526020015f20600a0180548060200260200160405190810160405280929190818152602001828054801561244057602002820191905f5260205f20905b81548152602001906001019080831161242c575b505050505090505f815167ffffffffffffffff811115612463576124626144ce565b5b60405190808252806020026020018201604052801561249c57816020015b612489613e6c565b8152602001906001900390816124815790505b5090505f5f90505b82518110156126655760065f8483815181106124c3576124c2615930565b5b602002602001015181526020019081526020015f206040518060e00160405290815f820154815260200160018201548152602001600282015f9054906101000a900460ff16600481111561251a57612519614015565b5b600481111561252c5761252b614015565b5b81526020016002820160019054906101000a900473ffffffffffffffffffffffffffffffffffffffff1673ffffffffffffffffffffffffffffffffffffffff1673ffffffffffffffffffffffffffffffffffffffff168152602001600382018054612596906151ad565b80601f01602080910402602001604051908101604052809291908181526020018280546125c2906151ad565b801561260d5780601f106125e45761010080835404028352916020019161260d565b820191905f5260205f20905b8154815290600101906020018083116125f057829003601f168201915b5050505050815260200160048201548152602001600582015f9054906101000a900460ff16151515158152505082828151811061264d5761264c615930565b5b602002602001018190525080806001019150506124a4565b50809350505050919050565b60075f3373ffffffffffffffffffffffffffffffffffffffff1673ffffffffffffffffffffffffffffffffffffffff1681526020019081526020015f206004015f9054906101000a900460ff166126fd576040517f08c379a00000000000000000000000000000000000000000000000000000000081526004016126f49061528f565b60405180910390fd5b815f8111801561270e575060015481105b61274d576040517f08c379a000000000000000000000000000000000000000000000000000000000815260040161274490615162565b60405180910390fd5b3373ffffffffffffffffffffffffffffffffffffffff1660045f8581526020019081526020015f206001015f9054906101000a900473ffffffffffffffffffffffffffffffffffffffff1673ffffffffffffffffffffffffffffffffffffffff16148061281857503373ffffffffffffffffffffffffffffffffffffffff1660045f8581526020019081526020015f206002015f9054906101000a900473ffffffffffffffffffffffffffffffffffffffff1673ffffffffffffffffffffffffffffffffffffffff16145b8061289357506002600581111561283257612831614015565b5b60075f3373ffffffffffffffffffffffffffffffffffffffff1673ffffffffffffffffffffffffffffffffffffffff1681526020019081526020015f206002015f9054906101000a900460ff16600581111561289157612890614015565b5b145b8061290e5750600360058111156128ad576128ac614015565b5b60075f3373ffffffffffffffffffffffffffffffffffffffff1673ffffffffffffffffffffffffffffffffffffffff1681526020019081526020015f206002015f9054906101000a900460ff16600581111561290c5761290b614015565b5b145b80612988575060058081111561292757612926614015565b5b60075f3373ffffffffffffffffffffffffffffffffffffffff1673ffffffffffffffffffffffffffffffffffffffff1681526020019081526020015f206002015f9054906101000a900460ff16600581111561298657612985614015565b5b145b6129c7576040517f08c379a00000000000000000000000000000000000000000000000000000000081526004016129be906159cd565b60405180910390fd5b8160045f8581526020019081526020015f206008015f6101000a81548160ff021916908360068111156129fd576129fc614015565b5b0217905550827f7c1c93f72f29b8a1fc6fc85eed990d133b1ffac80c962b521abb12f38f2ff9af83604051612a3291906159eb565b60405180910390a2505050565b60075f3373ffffffffffffffffffffffffffffffffffffffff1673ffffffffffffffffffffffffffffffffffffffff1681526020019081526020015f206004015f9054906101000a900460ff16612acb576040517f08c379a0000000000000000000000000000000000000000000000000000000008152600401612ac29061528f565b60405180910390fd5b805f81118015612adc575060015481105b612b1b576040517f08c379a0000000000000000000000000000000000000000000000000000000008152600401612b1290615162565b60405180910390fd5b3373ffffffffffffffffffffffffffffffffffffffff1660045f8481526020019081526020015f206001015f9054906101000a900473ffffffffffffffffffffffffffffffffffffffff1673ffffffffffffffffffffffffffffffffffffffff161480612bf75750600580811115612b9657612b95614015565b5b60075f3373ffffffffffffffffffffffffffffffffffffffff1673ffffffffffffffffffffffffffffffffffffffff1681526020019081526020015f206002015f9054906101000a900460ff166005811115612bf557612bf4614015565b5b145b612c36576040517f08c379a0000000000000000000000000000000000000000000000000000000008152600401612c2d90615a74565b60405180910390fd5b60046006811115612c4a57612c49614015565b5b60045f8481526020019081526020015f206008015f9054906101000a900460ff166006811115612c7d57612c7c614015565b5b03612cbd576040517f08c379a0000000000000000000000000000000000000000000000000000000008152600401612cb490615adc565b60405180910390fd5b5f6006811115612cd057612ccf614015565b5b60045f8481526020019081526020015f206008015f9054906101000a900460ff166006811115612d0357612d02614015565b5b14612d43576040517f08c379a0000000000000000000000000000000000000000000000000000000008152600401612d3a90615b6a565b60405180910390fd5b600660045f8481526020019081526020015f206008015f6101000a81548160ff02191690836006811115612d7a57612d79614015565b5b0217905550817f7c1c93f72f29b8a1fc6fc85eed990d133b1ffac80c962b521abb12f38f2ff9af6006604051612db091906159eb565b60405180910390a25050565b612dc4613e6c565b815f81118015612dd5575060035481105b612e14576040517f08c379a0000000000000000000000000000000000000000000000000000000008152600401612e0b906158aa565b60405180910390fd5b60065f8481526020019081526020015f206040518060e00160405290815f820154815260200160018201548152602001600282015f9054906101000a900460ff166004811115612e6757612e66614015565b5b6004811115612e7957612e78614015565b5b81526020016002820160019054906101000a900473ffffffffffffffffffffffffffffffffffffffff1673ffffffffffffffffffffffffffffffffffffffff1673ffffffffffffffffffffffffffffffffffffffff168152602001600382018054612ee3906151ad565b80601f0160208091040260200160405190810160405280929190818152602001828054612f0f906151ad565b8015612f5a5780601f10612f3157610100808354040283529160200191612f5a565b820191905f5260205f20905b815481529060010190602001808311612f3d57829003601f168201915b5050505050815260200160048201548152602001600582015f9054906101000a900460ff161515151581525050915050919050565b6006602052805f5260405f205f91509050805f015490806001015490806002015f9054906101000a900460ff16908060020160019054906101000a900473ffffffffffffffffffffffffffffffffffffffff1690806003018054612ff2906151ad565b80601f016020809104026020016040519081016040528092919081815260200182805461301e906151ad565b80156130695780601f1061304057610100808354040283529160200191613069565b820191905f5260205f20905b81548152906001019060200180831161304c57829003601f168201915b505050505090806004015490806005015f9054906101000a900460ff16905087565b5f815f8111801561309d575060015481105b6130dc576040517f08c379a00000000000000000000000000000000000000000000000000000000081526004016130d390615162565b60405180910390fd5b60045f8481526020019081526020015f20600b015f9054906101000a900460ff1661310a57600191506131b1565b5f61311484611d60565b90505f5f90505b81518110156131aa577fffffffffffffffffffffffffffffffffffffffffffffffffffffffffffffffce82828151811061315857613157615930565b5b602002602001015160e00151128061318e575060648282815181106131805761317f615930565b5b602002602001015160e00151135b1561319d575f935050506131b1565b808060010191505061311b565b5060019250505b50919050565b6005602052805f5260405f205f91509050805f015490806001015490806002015f9054906101000a900473ffffffffffffffffffffffffffffffffffffffff1690806003018054613207906151ad565b80601f0160208091040260200160405190810160405280929190818152602001828054613233906151ad565b801561327e5780601f106132555761010080835404028352916020019161327e565b820191905f5260205f20905b81548152906001019060200180831161326157829003601f168201915b505050505090806004018054613293906151ad565b80601f01602080910402602001604051908101604052809291908181526020018280546132bf906151ad565b801561330a5780601f106132e15761010080835404028352916020019161330a565b820191905f5260205f20905b8154815290600101906020018083116132ed57829003601f168201915b505050505090806005015490806006018054613325906151ad565b80601f0160208091040260200160405190810160405280929190818152602001828054613351906151ad565b801561339c5780601f106133735761010080835404028352916020019161339c565b820191905f5260205f20905b81548152906001019060200180831161337f57829003601f168201915b5050505050908060070154905088565b60015481565b5f60075f3373ffffffffffffffffffffffffffffffffffffffff1673ffffffffffffffffffffffffffffffffffffffff1681526020019081526020015f206004015f9054906101000a900460ff1661343f576040517f08c379a00000000000000000000000000000000000000000000000000000000081526004016134369061528f565b60405180910390fd5b835f81118015613450575060015481105b61348f576040517f08c379a000000000000000000000000000000000000000000000000000000000815260040161348690615162565b60405180910390fd5b6006808111156134a2576134a1614015565b5b60045f8781526020019081526020015f206008015f9054906101000a900460ff1660068111156134d5576134d4614015565b5b03613515576040517f08c379a000000000000000000000000000000000000000000000000000000000815260040161350c90615bf8565b60405180910390fd5b5f60035f81548092919061352890615368565b9190505590506040518060e0016040528082815260200187815260200186600481111561355857613557614015565b5b81526020013373ffffffffffffffffffffffffffffffffffffffff1681526020018581526020014281526020015f151581525060065f8381526020019081526020015f205f820151815f0155602082015181600101556040820151816002015f6101000a81548160ff021916908360048111156135d8576135d7614015565b5b021790555060608201518160020160016101000a81548173ffffffffffffffffffffffffffffffffffffffff021916908373ffffffffffffffffffffffffffffffffffffffff1602179055506080820151816003019081613639919061554f565b5060a0820151816004015560c0820151816005015f6101000a81548160ff02191690831515021790555090505060045f8781526020019081526020015f20600a0181908060018154018082558091505060019003905f5260205f20015f909190919091505585817fc2c9d0fa5caecea68b9ec6aca764014b01764f779d8a510f0d0d6796b76b7c83876040516136cf9190615c16565b60405180910390a380925050509392505050565b6007602052805f5260405f205f91509050805f015f9054906101000a900473ffffffffffffffffffffffffffffffffffffffff1690806001018054613727906151ad565b80601f0160208091040260200160405190810160405280929190818152602001828054613753906151ad565b801561379e5780601f106137755761010080835404028352916020019161379e565b820191905f5260205f20905b81548152906001019060200180831161378157829003601f168201915b505050505090806002015f9054906101000a900460ff16908060030180546137c5906151ad565b80601f01602080910402602001604051908101604052809291908181526020018280546137f1906151ad565b801561383c5780601f106138135761010080835404028352916020019161383c565b820191905f5260205f20905b81548152906001019060200180831161381f57829003601f168201915b505050505090806004015f9054906101000a900460ff16905085565b5f5f9054906101000a900473ffffffffffffffffffffffffffffffffffffffff1681565b5f5f9054906101000a900473ffffffffffffffffffffffffffffffffffffffff1673ffffffffffffffffffffffffffffffffffffffff163373ffffffffffffffffffffffffffffffffffffffff161461390a576040517f08c379a0000000000000000000000000000000000000000000000000000000008152600401613901906156bc565b60405180910390fd5b5f73ffffffffffffffffffffffffffffffffffffffff1660075f8373ffffffffffffffffffffffffffffffffffffffff1673ffffffffffffffffffffffffffffffffffffffff1681526020019081526020015f205f015f9054906101000a900473ffffffffffffffffffffffffffffffffffffffff1673ffffffffffffffffffffffffffffffffffffffff16036139d6576040517f08c379a00000000000000000000000000000000000000000000000000000000081526004016139cd90615c79565b60405180910390fd5b5f60075f8373ffffffffffffffffffffffffffffffffffffffff1673ffffffffffffffffffffffffffffffffffffffff1681526020019081526020015f206004015f6101000a81548160ff02191690831515021790555050565b60075f3373ffffffffffffffffffffffffffffffffffffffff1673ffffffffffffffffffffffffffffffffffffffff1681526020019081526020015f206004015f9054906101000a900460ff16613abc576040517f08c379a0000000000000000000000000000000000000000000000000000000008152600401613ab39061528f565b60405180910390fd5b805f81118015613acd575060015481105b613b0c576040517f08c379a0000000000000000000000000000000000000000000000000000000008152600401613b0390615162565b60405180910390fd5b3373ffffffffffffffffffffffffffffffffffffffff1660045f8481526020019081526020015f206002015f9054906101000a900473ffffffffffffffffffffffffffffffffffffffff1673ffffffffffffffffffffffffffffffffffffffff1614613bad576040517f08c379a0000000000000000000000000000000000000000000000000000000008152600401613ba490615d07565b60405180910390fd5b60046006811115613bc157613bc0614015565b5b60045f8481526020019081526020015f206008015f9054906101000a900460ff166006811115613bf457613bf3614015565b5b03613c34576040517f08c379a0000000000000000000000000000000000000000000000000000000008152600401613c2b90615d6f565b60405180910390fd5b6004805f8481526020019081526020015f206008015f6101000a81548160ff02191690836006811115613c6a57613c69614015565b5b02179055504260045f8481526020019081526020015f20600701819055503373ffffffffffffffffffffffffffffffffffffffff16827f2f4a952729db32131cb3d658cc231127e0ce7e50f83508ece9a49c985f2384d042604051613ccf9190614296565b60405180910390a35050565b6040518061018001604052805f81526020015f73ffffffffffffffffffffffffffffffffffffffff1681526020015f73ffffffffffffffffffffffffffffffffffffffff1681526020016060815260200160608152602001606081526020015f81526020015f81526020015f6006811115613d5957613d58614015565b5b815260200160608152602001606081526020015f151581525090565b6040518061010001604052805f81526020015f81526020015f73ffffffffffffffffffffffffffffffffffffffff16815260200160608152602001606081526020015f8152602001606081526020015f81525090565b6040518060a001604052805f73ffffffffffffffffffffffffffffffffffffffff168152602001606081526020015f6005811115613e0c57613e0b614015565b5b8152602001606081526020015f151581525090565b828054828255905f5260205f20908101928215613e5b579160200282015b82811115613e5a578251825591602001919060010190613e3f565b5b509050613e689190613ecd565b5090565b6040518060e001604052805f81526020015f81526020015f6004811115613e9657613e95614015565b5b81526020015f73ffffffffffffffffffffffffffffffffffffffff168152602001606081526020015f81526020015f151581525090565b5b80821115613ee4575f815f905550600101613ece565b5090565b5f604051905090565b5f5ffd5b5f5ffd5b5f819050919050565b613f0b81613ef9565b8114613f15575f5ffd5b50565b5f81359050613f2681613f02565b92915050565b5f60208284031215613f4157613f40613ef1565b5b5f613f4e84828501613f18565b91505092915050565b613f6081613ef9565b82525050565b5f73ffffffffffffffffffffffffffffffffffffffff82169050919050565b5f613f8f82613f66565b9050919050565b613f9f81613f85565b82525050565b5f81519050919050565b5f82825260208201905092915050565b8281835e5f83830152505050565b5f601f19601f8301169050919050565b5f613fe782613fa5565b613ff18185613faf565b9350614001818560208601613fbf565b61400a81613fcd565b840191505092915050565b7f4e487b71000000000000000000000000000000000000000000000000000000005f52602160045260245ffd5b6007811061405357614052614015565b5b50565b5f81905061406382614042565b919050565b5f61407282614056565b9050919050565b61408281614068565b82525050565b5f81519050919050565b5f82825260208201905092915050565b5f819050602082019050919050565b5f6140bc8383613f57565b60208301905092915050565b5f602082019050919050565b5f6140de82614088565b6140e88185614092565b93506140f3836140a2565b805f5b8381101561412357815161410a88826140b1565b9750614115836140c8565b9250506001810190506140f6565b5085935050505092915050565b5f8115159050919050565b61414481614130565b82525050565b5f61018083015f8301516141605f860182613f57565b5060208301516141736020860182613f96565b5060408301516141866040860182613f96565b506060830151848203606086015261419e8282613fdd565b915050608083015184820360808601526141b88282613fdd565b91505060a083015184820360a08601526141d28282613fdd565b91505060c08301516141e760c0860182613f57565b5060e08301516141fa60e0860182613f57565b5061010083015161420f610100860182614079565b5061012083015184820361012086015261422982826140d4565b91505061014083015184820361014086015261424582826140d4565b91505061016083015161425c61016086018261413b565b508091505092915050565b5f6020820190508181035f83015261427f818461414a565b905092915050565b61429081613ef9565b82525050565b5f6020820190506142a95f830184614287565b92915050565b5f819050919050565b6142c1816142af565b82525050565b5f61010083015f8301516142dd5f860182613f57565b5060208301516142f06020860182613f57565b5060408301516143036040860182613f96565b506060830151848203606086015261431b8282613fdd565b915050608083015184820360808601526143358282613fdd565b91505060a083015161434a60a0860182613f57565b5060c083015184820360c08601526143628282613fdd565b91505060e083015161437760e08601826142b8565b508091505092915050565b5f6020820190508181035f83015261439a81846142c7565b905092915050565b6143ab81613f85565b82525050565b5f82825260208201905092915050565b5f6143cb82613fa5565b6143d581856143b1565b93506143e5818560208601613fbf565b6143ee81613fcd565b840191505092915050565b61440281614068565b82525050565b61441181614130565b82525050565b5f6101408201905061442b5f83018d614287565b614438602083018c6143a2565b614445604083018b6143a2565b8181036060830152614457818a6143c1565b9050818103608083015261446b81896143c1565b905081810360a083015261447f81886143c1565b905061448e60c0830187614287565b61449b60e0830186614287565b6144a96101008301856143f9565b6144b7610120830184614408565b9b9a5050505050505050505050565b5f5ffd5b5f5ffd5b7f4e487b71000000000000000000000000000000000000000000000000000000005f52604160045260245ffd5b61450482613fcd565b810181811067ffffffffffffffff82111715614523576145226144ce565b5b80604052505050565b5f614535613ee8565b905061454182826144fb565b919050565b5f67ffffffffffffffff8211156145605761455f6144ce565b5b61456982613fcd565b9050602081019050919050565b828183375f83830152505050565b5f61459661459184614546565b61452c565b9050828152602081018484840111156145b2576145b16144ca565b5b6145bd848285614576565b509392505050565b5f82601f8301126145d9576145d86144c6565b5b81356145e9848260208601614584565b91505092915050565b6145fb816142af565b8114614605575f5ffd5b50565b5f81359050614616816145f2565b92915050565b5f5f5f5f5f60a0868803121561463557614634613ef1565b5b5f61464288828901613f18565b955050602086013567ffffffffffffffff81111561466357614662613ef5565b5b61466f888289016145c5565b945050604086013567ffffffffffffffff8111156146905761468f613ef5565b5b61469c888289016145c5565b935050606086013567ffffffffffffffff8111156146bd576146bc613ef5565b5b6146c9888289016145c5565b92505060806146da88828901614608565b9150509295509295909350565b6146f081613f85565b81146146fa575f5ffd5b50565b5f8135905061470b816146e7565b92915050565b5f6020828403121561472657614725613ef1565b5b5f614733848285016146fd565b91505092915050565b6006811061474d5761474c614015565b5b50565b5f81905061475d8261473c565b919050565b5f61476c82614750565b9050919050565b61477c81614762565b82525050565b5f60a083015f8301516147975f860182613f96565b50602083015184820360208601526147af8282613fdd565b91505060408301516147c46040860182614773565b50606083015184820360608601526147dc8282613fdd565b91505060808301516147f1608086018261413b565b508091505092915050565b5f6020820190508181035f8301526148148184614782565b905092915050565b60068110614828575f5ffd5b50565b5f813590506148398161481c565b92915050565b5f5f5f5f6080858703121561485757614856613ef1565b5b5f614864878288016146fd565b945050602085013567ffffffffffffffff81111561488557614884613ef5565b5b614891878288016145c5565b93505060406148a28782880161482b565b925050606085013567ffffffffffffffff8111156148c3576148c2613ef5565b5b6148cf878288016145c5565b91505092959194509250565b6148e481614130565b81146148ee575f5ffd5b50565b5f813590506148ff816148db565b92915050565b5f5f5f5f5f60a0868803121561491e5761491d613ef1565b5b5f61492b888289016146fd565b955050602086013567ffffffffffffffff81111561494c5761494b613ef5565b5b614958888289016145c5565b945050604086013567ffffffffffffffff81111561497957614978613ef5565b5b614985888289016145c5565b935050606086013567ffffffffffffffff8111156149a6576149a5613ef5565b5b6149b2888289016145c5565b92505060806149c3888289016148f1565b9150509295509295909350565b5f81519050919050565b5f82825260208201905092915050565b5f819050602082019050919050565b5f61010083015f830151614a0f5f860182613f57565b506020830151614a226020860182613f57565b506040830151614a356040860182613f96565b5060608301518482036060860152614a4d8282613fdd565b91505060808301518482036080860152614a678282613fdd565b91505060a0830151614a7c60a0860182613f57565b5060c083015184820360c0860152614a948282613fdd565b91505060e0830151614aa960e08601826142b8565b508091505092915050565b5f614abf83836149f9565b905092915050565b5f602082019050919050565b5f614add826149d0565b614ae781856149da565b935083602082028501614af9856149ea565b805f5b85811015614b345784840389528151614b158582614ab4565b9450614b2083614ac7565b925060208a01995050600181019050614afc565b50829750879550505050505092915050565b5f6020820190508181035f830152614b5e8184614ad3565b905092915050565b5f82825260208201905092915050565b5f614b8082614088565b614b8a8185614b66565b9350614b95836140a2565b805f5b83811015614bc5578151614bac88826140b1565b9750614bb7836140c8565b925050600181019050614b98565b5085935050505092915050565b5f6020820190508181035f830152614bea8184614b76565b905092915050565b5f81519050919050565b5f82825260208201905092915050565b5f819050602082019050919050565b60058110614c2c57614c2b614015565b5b50565b5f819050614c3c82614c1b565b919050565b5f614c4b82614c2f565b9050919050565b614c5b81614c41565b82525050565b5f60e083015f830151614c765f860182613f57565b506020830151614c896020860182613f57565b506040830151614c9c6040860182614c52565b506060830151614caf6060860182613f96565b5060808301518482036080860152614cc78282613fdd565b91505060a0830151614cdc60a0860182613f57565b5060c0830151614cef60c086018261413b565b508091505092915050565b5f614d058383614c61565b905092915050565b5f602082019050919050565b5f614d2382614bf2565b614d2d8185614bfc565b935083602082028501614d3f85614c0c565b805f5b85811015614d7a5784840389528151614d5b8582614cfa565b9450614d6683614d0d565b925060208a01995050600181019050614d42565b50829750879550505050505092915050565b5f6020820190508181035f830152614da48184614d19565b905092915050565b60078110614db8575f5ffd5b50565b5f81359050614dc981614dac565b92915050565b5f5f60408385031215614de557614de4613ef1565b5b5f614df285828601613f18565b9250506020614e0385828601614dbb565b9150509250929050565b5f60e083015f830151614e225f860182613f57565b506020830151614e356020860182613f57565b506040830151614e486040860182614c52565b506060830151614e5b6060860182613f96565b5060808301518482036080860152614e738282613fdd565b91505060a0830151614e8860a0860182613f57565b5060c0830151614e9b60c086018261413b565b508091505092915050565b5f6020820190508181035f830152614ebe8184614e0d565b905092915050565b614ecf81614c41565b82525050565b5f60e082019050614ee85f83018a614287565b614ef56020830189614287565b614f026040830188614ec6565b614f0f60608301876143a2565b8181036080830152614f2181866143c1565b9050614f3060a0830185614287565b614f3d60c0830184614408565b98975050505050505050565b5f602082019050614f5c5f830184614408565b92915050565b614f6b816142af565b82525050565b5f61010082019050614f855f83018b614287565b614f92602083018a614287565b614f9f60408301896143a2565b8181036060830152614fb181886143c1565b90508181036080830152614fc581876143c1565b9050614fd460a0830186614287565b81810360c0830152614fe681856143c1565b9050614ff560e0830184614f62565b9998505050505050505050565b6005811061500e575f5ffd5b50565b5f8135905061501f81615002565b92915050565b5f5f5f6060848603121561503c5761503b613ef1565b5b5f61504986828701613f18565b935050602061505a86828701615011565b925050604084013567ffffffffffffffff81111561507b5761507a613ef5565b5b615087868287016145c5565b9150509250925092565b61509a81614762565b82525050565b5f60a0820190506150b35f8301886143a2565b81810360208301526150c581876143c1565b90506150d46040830186615091565b81810360608301526150e681856143c1565b90506150f56080830184614408565b9695505050505050565b5f6020820190506151125f8301846143a2565b92915050565b7f536869706d656e7420646f6573206e6f742065786973740000000000000000005f82015250565b5f61514c6017836143b1565b915061515782615118565b602082019050919050565b5f6020820190508181035f83015261517981615140565b9050919050565b7f4e487b71000000000000000000000000000000000000000000000000000000005f52602260045260245ffd5b5f60028204905060018216806151c457607f821691505b6020821081036151d7576151d6615180565b5b50919050565b7f436865636b706f696e7420646f6573206e6f74206578697374000000000000005f82015250565b5f6152116019836143b1565b915061521c826151dd565b602082019050919050565b5f6020820190508181035f83015261523e81615205565b9050919050565b7f4163746f72206973206e6f7420616374697665000000000000000000000000005f82015250565b5f6152796013836143b1565b915061528482615245565b602082019050919050565b5f6020820190508181035f8301526152a68161526d565b9050919050565b7f43616e6e6f74207265636f726420636865636b706f696e7420666f722063616e5f8201527f63656c6c6564206f722064656c69766572656420736869706d656e7400000000602082015250565b5f615307603c836143b1565b9150615312826152ad565b604082019050919050565b5f6020820190508181035f830152615334816152fb565b9050919050565b7f4e487b71000000000000000000000000000000000000000000000000000000005f52601160045260245ffd5b5f61537282613ef9565b91507fffffffffffffffffffffffffffffffffffffffffffffffffffffffffffffffff82036153a4576153a361533b565b5b600182019050919050565b5f819050815f5260205f209050919050565b5f6020601f8301049050919050565b5f82821b905092915050565b5f6008830261540b7fffffffffffffffffffffffffffffffffffffffffffffffffffffffffffffffff826153d0565b61541586836153d0565b95508019841693508086168417925050509392505050565b5f819050919050565b5f61545061544b61544684613ef9565b61542d565b613ef9565b9050919050565b5f819050919050565b61546983615436565b61547d61547582615457565b8484546153dc565b825550505050565b5f5f905090565b615494615485565b61549f818484615460565b505050565b5b818110156154c2576154b75f8261548c565b6001810190506154a5565b5050565b601f821115615507576154d8816153af565b6154e1846153c1565b810160208510156154f0578190505b6155046154fc856153c1565b8301826154a4565b50505b505050565b5f82821c905092915050565b5f6155275f198460080261550c565b1980831691505092915050565b5f61553f8383615518565b9150826002028217905092915050565b61555882613fa5565b67ffffffffffffffff811115615571576155706144ce565b5b61557b82546151ad565b6155868282856154c6565b5f60209050601f8311600181146155b7575f84156155a5578287015190505b6155af8582615534565b865550615616565b601f1984166155c5866153af565b5f5b828110156155ec578489015182556001820191506020850194506020810190506155c7565b868310156156095784890151615605601f891682615518565b8355505b6001600288020188555050505b505050505050565b5f6040820190508181035f83015261563681856143c1565b905061564560208301846143a2565b9392505050565b7f4f6e6c792061646d696e2063616e2063616c6c20746869732066756e6374696f5f8201527f6e00000000000000000000000000000000000000000000000000000000000000602082015250565b5f6156a66021836143b1565b91506156b18261564c565b604082019050919050565b5f6020820190508181035f8301526156d38161569a565b9050919050565b7f4163746f7220616c7265616479207265676973746572656400000000000000005f82015250565b5f61570e6018836143b1565b9150615719826156da565b602082019050919050565b5f6020820190508181035f83015261573b81615702565b9050919050565b5f6040820190508181035f83015261575a81856143c1565b90506157696020830184615091565b9392505050565b7f496e76616c696420726563697069656e742061646472657373000000000000005f82015250565b5f6157a46019836143b1565b91506157af82615770565b602082019050919050565b5f6020820190508181035f8301526157d181615798565b9050919050565b7f4f6e6c792073656e6465722063616e2063726561746520736869706d656e74005f82015250565b5f61580c601f836143b1565b9150615817826157d8565b602082019050919050565b5f6020820190508181035f83015261583981615800565b9050919050565b5f6020820190508181035f83015261585881846143c1565b905092915050565b7f496e636964656e7420646f6573206e6f742065786973740000000000000000005f82015250565b5f6158946017836143b1565b915061589f82615860565b602082019050919050565b5f6020820190508181035f8301526158c181615888565b9050919050565b7f496e636964656e7420616c7265616479207265736f6c766564000000000000005f82015250565b5f6158fc6019836143b1565b9150615907826158c8565b602082019050919050565b5f6020820190508181035f830152615929816158f0565b9050919050565b7f4e487b71000000000000000000000000000000000000000000000000000000005f52603260045260245ffd5b7f4f6e6c7920617574686f72697a6564206163746f72732063616e2075706461745f8201527f6520736869706d656e7420737461747573000000000000000000000000000000602082015250565b5f6159b76031836143b1565b91506159c28261595d565b604082019050919050565b5f6020820190508181035f8301526159e4816159ab565b9050919050565b5f6020820190506159fe5f8301846143f9565b92915050565b7f4f6e6c792073656e646572206f7220696e73706563746f722063616e2063616e5f8201527f63656c20736869706d656e740000000000000000000000000000000000000000602082015250565b5f615a5e602c836143b1565b9150615a6982615a04565b604082019050919050565b5f6020820190508181035f830152615a8b81615a52565b9050919050565b7f43616e6e6f742063616e63656c2064656c69766572656420736869706d656e745f82015250565b5f615ac66020836143b1565b9150615ad182615a92565b602082019050919050565b5f6020820190508181035f830152615af381615aba565b9050919050565b7f43616e6e6f742063616e63656c20736869706d656e7420696e207472616e73695f8201527f7400000000000000000000000000000000000000000000000000000000000000602082015250565b5f615b546021836143b1565b9150615b5f82615afa565b604082019050919050565b5f6020820190508181035f830152615b8181615b48565b9050919050565b7f43616e6e6f74207265706f727420696e636964656e74206f6e2063616e63656c5f8201527f6c656420736869706d656e740000000000000000000000000000000000000000602082015250565b5f615be2602c836143b1565b9150615bed82615b88565b604082019050919050565b5f6020820190508181035f830152615c0f81615bd6565b9050919050565b5f602082019050615c295f830184614ec6565b92915050565b7f4163746f7220646f6573206e6f742065786973740000000000000000000000005f82015250565b5f615c636014836143b1565b9150615c6e82615c2f565b602082019050919050565b5f6020820190508181035f830152615c9081615c57565b9050919050565b7f4f6e6c7920726563697069656e742063616e20636f6e6669726d2064656c69765f8201527f6572790000000000000000000000000000000000000000000000000000000000602082015250565b5f615cf16023836143b1565b9150615cfc82615c97565b604082019050919050565b5f6020820190508181035f830152615d1e81615ce5565b9050919050565b7f536869706d656e7420616c72656164792064656c6976657265640000000000005f82015250565b5f615d59601a836143b1565b9150615d6482615d25565b602082019050919050565b5f6020820190508181035f830152615d8681615d4d565b905091905056fea2646970667358221220b34f68633e3d469b5dba42b80dbbf5e8b2d41382135543a241dcd8a888c28dd564736f6c634300081e0033","linkReferences":{}},"methodIdentifiers":{"actors(address)":"eaa66a3c","admin()":"f851a440","cancelShipment(uint256)":"7faa7bc7","checkpoints(uint256)":"b8a24252","confirmDelivery(uint256)":"fd84cb97","createShipment(address,string,string,string,bool)":"475b6f98","deactivateActor(address)":"fc436695","getActor(address)":"4138d167","getActorShipments(address)":"72f2f93a","getCheckpoint(uint256)":"20fc4881","getIncident(uint256)":"9578615e","getShipment(uint256)":"092b3740","getShipmentCheckpoints(uint256)":"5f19f4f5","getShipmentIncidents(uint256)":"733e28aa","incidents(uint256)":"a6c6a8f3","nextCheckpointId()":"229ec452","nextIncidentId()":"0fd19668","nextShipmentId()":"b9a3a68c","recordCheckpoint(uint256,string,string,string,int256)":"33401ee1","registerActor(address,string,uint8,string)":"44453a94","reportIncident(uint256,uint8,string)":"e570c367","resolveIncident(uint256)":"4ffe6ae2","shipments(uint256)":"2ac08a93","updateShipmentStatus(uint256,uint8)":"7defa920","verifyTemperatureCompliance(uint256)":"af56a428"},"id":19}